:020000040800F2
:10000000FFFF0220B5A50008359E0008399E0008B4
:10001000019F0008059F0008099F000800000000DC
:10002000000000000000000000000000916A0008CD
:100030000D9F000800000000116B0008119F0008D0
:1000400005A6000805A6000805A6000805A60008E4
:1000500005A6000805A6000805A6000805A60008D4
:1000600005A6000805A6000805A6000805A60008C4
:1000700005A6000805A6000805A6000805A60008B4
:1000800005A6000805A6000821A00008219F000879
:100090002D9F0008399F0008459F000805A600080D
:1000A00005A6000805A6000805A6000805A6000884
:1000B00005A6000839A0000805A6000805A6000846
:1000C00005A6000805A6000805A6000805A6000864
:1000D000999F000805A600081DA0000811A00008AF
:1000E0003DA0000805A6000805A6000805A6000812
:1000F00005A6000805A6000805A6000805A6000834
:1001000005A6000805A6000805A6000805A6000823
:1001100005A6000805A6000805A6000805A6000813
:10012000B19F0008C99F0008E19F0008F99F0008DF
:1001300005A6000805A6000805A60008519F0008AE
:100140005D9F0008699F0008759F000805A60008CC
:1001500005A6000805A6000805A6000805A60008D3
:1001600005A6000805A6000805A6000805A60008C3
:1001700005A6000805A6000805A600080000000066
:1001800005A6000805A6000805A6000805A60008A3
:1001900005A6000805A60008819F000805A600081E
:1001A00005A6000805A6000805A60008FFFFFFFF3A
:1001B00010B5054C237833B9044B13B10448AFF3A1
:1001C00000800123237010BD141C002000000000DB
:1001D000DC660108084B10B51BB108480849AFF3AD
:1001E00000800848036803B910BD074B002BFBD003
:1001F000BDE81040184700BF00000000DC660108A1
:10020000181C0020141C00200000000081F0004198
:1002100002E000BF83F0004330B54FEA41044FEAEB
:10022000430594EA050F08BF90EA020F1FBF54EA86
:10023000000C55EA020C7FEA645C7FEA655C00F022
:10024000E2804FEA5454D4EB5555B8BF6D420CDDF3
:100250002C4480EA020281EA030382EA000083EA76
:10026000010180EA020281EA0303362D88BF30BD16
:1002700011F0004F4FEA01314FF4801C4CEA11316C
:1002800002D0404261EB410113F0004F4FEA0333CB
:100290004CEA133302D0524263EB430394EA050F56
:1002A00000F0A780A4F10104D5F1200E0DDB02FAC5
:1002B0000EFC22FA05F2801841F1000103FA0EF259
:1002C000801843FA05F359410EE0A5F120050EF11F
:1002D000200E012A03FA0EFC28BF4CF0020C43FA50
:1002E00005F3C01851EBE37101F0004507D54FF05D
:1002F000000EDCF1000C7EEB00006EEB0101B1F5AD
:10030000801F1BD3B1F5001F0CD349085FEA3000F2
:100310004FEA3C0C04F101044FEA445212F5800FFD
:1003200080F09A80BCF1004F08BF5FEA500C50F19A
:10033000000041EB045141EA050130BD5FEA4C0C7D
:10034000404141EB010111F4801FA4F10104E9D106
:1003500091F0000F04BF01460020B1FA81F308BFFD
:100360002033A3F10B03B3F120020CDA0C3208DDC9
:1003700002F1140CC2F10C0201FA0CF021FA02F1A4
:100380000CE002F11402D8BFC2F1200C01FA02F114
:1003900020FA0CFCDCBF41EA0C019040E41AA2BF39
:1003A00001EB0451294330BD6FEA04041F3C1CDA01
:1003B0000C340EDC04F11404C4F1200220FA04F021
:1003C00001FA02F340EA030021FA04F345EA0301CB
:1003D00030BDC4F10C04C4F1200220FA02F001FA8D
:1003E00004F340EA0300294630BD21FA04F029460F
:1003F00030BD94F0000F83F4801306BF81F48011A8
:100400000134013D4EE77FEA645C18BF7FEA655C1A
:1004100029D094EA050F08BF90EA020F05D054EAEC
:10042000000C04BF1946104630BD91EA030F1EBFF1
:100430000021002030BD5FEA545C05D140004941F5
:1004400028BF41F0004130BD14F580043CBF01F5E8
:10045000801130BD01F0004545F0FE4141F47001CE
:100460004FF0000030BD7FEA645C1ABF19461046A9
:100470007FEA655C1CBF0B46024650EA013406BFAA
:1004800052EA033591EA030F41F4002130BD00BF69
:1004900090F0000F04BF0021704730B54FF4806426
:1004A00004F132044FF000054FF0000150E700BFA7
:1004B00090F0000F04BF0021704730B54FF4806406
:1004C00004F1320410F0004548BF40424FF00001F3
:1004D0003EE700BF42004FEAE2014FEA31014FEA36
:1004E00002701FBF12F07F4393F07F4F81F0605185
:1004F000704792F0000F14BF93F07F4F704730B5F4
:100500004FF4607401F0004521F0004120E700BF86
:1005100050EA010208BF704730B54FF000050AE00D
:1005200050EA010208BF704730B511F0004502D50E
:10053000404261EB41014FF4806404F132045FEA10
:10054000915C3FF4DCAE4FF003025FEADC0C18BFB5
:1005500003325FEADC0C18BF033202EBDC02C2F1AB
:10056000200300FA03FC20FA02F001FA03FE40EA3D
:100570000E0021FA02F11444C1E600BF70B54FF03D
:10058000FF0C4CF4E06C1CEA11541DBF1CEA13551F
:1005900094EA0C0F95EA0C0F00F0DEF82C4481EA87
:1005A000030621EA4C5123EA4C5350EA013518BFA7
:1005B00052EA033541F4801143F4801338D0A0FB94
:1005C00002CE4FF00005E1FB02E506F00042E0FB41
:1005D00003E54FF00006E1FB03569CF0000F18BF47
:1005E0004EF0010EA4F1FF04B6F5007F64F54074EF
:1005F00004D25FEA4E0E6D4146EB060642EAC62182
:1006000041EA55514FEAC52040EA5E504FEACE2EEE
:10061000B4F1FD0C88BFBCF5E06F1ED8BEF1004FF1
:1006200008BF5FEA500E50F1000041EB045170BD6D
:1006300006F0004646EA010140EA020081EA0301B1
:10064000B4EB5C04C2BFD4EB0C0541EA045170BDAD
:1006500041F480114FF0000E013C00F3AB8014F127
:10066000360FDEBF002001F0004170BDC4F1000470
:10067000203C35DA0C341BDC04F11404C4F12005F1
:1006800000FA05F320FA04F001FA05F240EA02004C
:1006900001F0004221F0004110EBD37021FA04F682
:1006A00042EB06015EEA430E08BF20EAD37070BD3C
:1006B000C4F10C04C4F1200500FA04F320FA05F09B
:1006C00001FA04F240EA020001F0004110EBD3709D
:1006D00041F100015EEA430E08BF20EAD37070BD0D
:1006E000C4F1200500FA05F24EEA020E20FA04F3E6
:1006F00001FA05F243EA020321FA04F001F0004195
:1007000021FA04F220EA020000EBD3705EEA430E05
:1007100008BF20EAD37070BD94F0000F0FD101F034
:100720000046400041EB010111F4801F08BF013C6D
:10073000F7D041EA060195F0000F18BF704703F0AB
:100740000046520043EB030313F4801F08BF013D32
:10075000F7D043EA0603704794EA0C0F0CEA1355EE
:1007600018BF95EA0C0F0CD050EA410618BF52EAA8
:100770004306D1D181EA030101F000414FF00000AE
:1007800070BD50EA410606BF1046194652EA4306BC
:1007900019D094EA0C0F02D150EA013613D195EA30
:1007A0000C0F05D152EA03361CBF104619460AD178
:1007B00081EA030101F0004141F0FE4141F4700182
:1007C0004FF0000070BD41F0FE4141F4780170BD72
:1007D00070B54FF0FF0C4CF4E06C1CEA11541DBFD7
:1007E0001CEA135594EA0C0F95EA0C0F00F0A7F8D9
:1007F000A4EB050481EA030E52EA03354FEA013106
:1008000000F088804FEA03334FF0805545EA131318
:1008100043EA12634FEA022245EA111545EA1065E0
:100820004FEA00260EF000419D4208BF964244F177
:10083000FD0404F5407402D25B084FEA3202B61A96
:1008400065EB03055B084FEA32024FF480104FF46A
:10085000002CB6EB020E75EB030E22BFB61A7546DE
:1008600040EA0C005B084FEA3202B6EB020E75EB71
:10087000030E22BFB61A754640EA5C005B084FEAD9
:100880003202B6EB020E75EB030E22BFB61A7546A6
:1008900040EA9C005B084FEA3202B6EB020E75EBB1
:1008A000030E22BFB61A754640EADC0055EA060E72
:1008B00018D04FEA051545EA16754FEA06164FEAB5
:1008C000C30343EA52734FEAC2025FEA1C1CC0D161
:1008D00011F4801F0BD141EA00014FF000004FF0EE
:1008E000004CB6E711F4801F04BF01430020B4F1AF
:1008F000FD0C88BFBCF5E06F3FF6AFAEB5EB030C67
:1009000004BFB6EB020C5FEA500C50F1000041EB63
:10091000045170BD0EF0004E4EEA113114EB5C0430
:10092000C2BFD4EB0C0541EA045170BD41F4801103
:100930004FF0000E013C90E645EA060E8DE60CEA0B
:10094000135594EA0C0F08BF95EA0C0F3FF43BAF28
:1009500094EA0C0F0AD150EA01347FF434AF95EADF
:100960000C0F7FF425AF104619462CE795EA0C0FC3
:1009700006D152EA03353FF4FDAE1046194622E790
:1009800050EA410618BF52EA43067FF4C5AE50EA6A
:1009900041047FF40DAF52EA43057FF4EBAE12E75A
:1009A0004A0011D212F5001211D20DD56FF47873EE
:1009B000B3EB62520ED44FEAC12343F0004343EA43
:1009C000505323FA02F070474FF00000704750EA8E
:1009D000013002D14FF0FF3070474FF000007047F8
:1009E0004FEA4102B2F1E04324BFB3F5001CDCF151
:1009F000FE5C0DD901F0004C4FEAC0024CEA507089
:100A0000B2F1004F40EB830008BF20F001007047B7
:100A100011F0804F21D113F13872BCBF01F00040BA
:100A2000704741F480114FEA5252C2F11802C2F1EC
:100A3000200C10FA0CF320FA02F018BF40F001006D
:100A40004FEAC1234FEAD32303FA0CFC40EA0C001F
:100A500023FA02F34FEA4303CCE77FEA625307D15C
:100A600050EA01331EBF4FF0FE4040F44000704793
:100A700001F0004040F0FE4040F40000704700BF2D
:100A800080F0004002E000BF81F0004142001FBF43
:100A90005FEA410392EA030F7FEA226C7FEA236C4C
:100AA0006AD04FEA1262D2EB1363C1BFD218414041
:100AB00048404140B8BF5B42192B88BF704710F0D7
:100AC000004F40F4000020F07F4018BF404211F07A
:100AD000004F41F4000121F07F4118BF494292EAE2
:100AE000030F3FD0A2F1010241FA03FC10EB0C000E
:100AF000C3F1200301FA03F100F0004302D549429B
:100B000060EB4000B0F5000F13D3B0F1807F06D347
:100B100040084FEA310102F10102FE2A51D2B1F13F
:100B2000004F40EBC25008BF20F0010040EA030034
:100B30007047490040EB000010F4000FA2F10102E1
:100B4000EDD1B0FA80FCACF1080CB2EB0C0200FA6B
:100B50000CF0AABF00EBC25052421843BCBFD040B9
:100B60001843704792F0000F81F4000106BF80F433
:100B700000000132013BB5E74FEA41037FEA226CF6
:100B800018BF7FEA236C21D092EA030F04D092F0C1
:100B9000000F08BF0846704790EA010F1CBF0020F5
:100BA000704712F07F4F04D1400028BF40F0004052
:100BB000704712F100723CBF00F50000704700F072
:100BC000004343F0FE4040F4000070477FEA226299
:100BD00016BF08467FEA23630146420206BF5FEA6A
:100BE000412390EA010F40F4800070474FF000036A
:100BF00004E000BF10F0004348BF40425FEA000C31
:100C000008BF704743F0964301464FF000001CE0D8
:100C100050EA010208BF70474FF000030AE000BF2E
:100C200050EA010208BF704711F0004302D540426C
:100C300061EB41015FEA010C02BF844601460020DE
:100C400043F0B64308BFA3F18053A3F50003BCFAF9
:100C50008CF2083AA3EBC25310DB01FA02FC6344A6
:100C600000FA02FCC2F12002BCF1004F20FA02F2AD
:100C700043EB020008BF20F00100704702F12002A0
:100C800001FA02FCC2F1200250EA4C0021FA02F201
:100C900043EB020008BF20EADC70704700210A2203
:100CA00000F05CB970B50E4B0E4CE41AA410002590
:100CB0001E46A54204D056F8253098470135F8E77E
:100CC00015F00CFD084C094BE41AA41000251E4633
:100CD000A54204D056F8253098470135F8E770BD95
:100CE000DCFC0108DCFC0108E0FC0108DCFC01087C
:100CF00010B5431E0A44914204D011F8014B03F889
:100D0000014FF8E710BD02440346934202D003F8B6
:100D1000011BFAE77047FFFF0EB400B59CB04FF41B
:100D20000271ADF814106FF00041049107914FF675
:100D3000FF711DABADF81610084953F8042B029053
:100D400006900868019302A900F012FA029B0022A3
:100D50001A701CB05DF804EB03B070470C1C002047
:100D600010F8012B11F8013B012A28BF9A42F7D055
:100D7000D01A7047034611F8012B03F8012B002A03
:100D8000F9D17047034613F8012B002AFBD1181A3A
:100D900001387047174B2DE9F0411D68AC6D0646D0
:100DA0000F46FCB9502000F0E7F8A8658460AB6DF1
:100DB000046044601C61DC60AB6D9C615C61AB6D88
:100DC000DC629C62AB6D5C631C63AB6DDC639C633B
:100DD000AB6D5C641C64AB6DDC649C64AB6D1C77B8
:100DE000AB6D5C6230463946AA6D0123BDE8F04127
:100DF00000F002B80C1C0020F0B548B9106838B9F2
:100E0000F0BD17F8016B5EB1B542FAD12BB12046A7
:100E100004460F4614F8015BF3E714600370F0BD5D
:100E20004DB915602846F0BD17F8016BAE4207D0EA
:100E3000002EF9D11C4623460F4613F8015BF3E759
:100E400015B10021217000E02B461360F0BDFFFFBB
:100E50002DE9F047404CD4F800900F463D4615F878
:100E600001EB09EB0E04667806F0080404F0FF06B7
:100E70000CB12F46F2E774462D2C03D1BD1C7C78B3
:100E8000012603E02B2C04BF7C78BD1C13B1102B72
:100E90000AD15AE0302C56D12C7804F0DF04582CBB
:100EA0004CD16C7810230235002E14BF4FF000484F
:100EB0006FF000480027B8FBF3FABE4603FB1A8820
:100EC00009EB040C9CF801C01CF0040F01D0303C6D
:100ED0000BE01CF0030C1BD0BCF1010F0CBF4FF05A
:100EE000370C4FF0570CCCEB04049C4210DAB7F1EE
:100EF000FF3F0AD0D64506D801D1444503DC03FBA9
:100F00000E4E012701E04FF0FF3715F8014BD7E7F0
:100F10007C1C73460AD1002E4FF0220114BF4FF003
:100F200000436FF0004301602AB911E00EB1CEF129
:100F300000036AB107B1691E116009E03024002B7B
:100F4000B2D10823B0E70A23AEE7302CACD1A3E737
:100F50001846BDE8F08700BF101C002030B51346CE
:100F6000044A05460C46106829462246BDE8304032
:100F7000FFF76EBF0C1C0020024B0146186800F002
:100F800047B800BF0C1C002030B500293DD051F8F7
:100F9000042C0B1F1D49002AB8BF9B180A680C4679
:100FA00012B95A600B6030BD93420DD219685818BF
:100FB000904201BF5A5852181A6042685A60236022
:100FC00030BD994203D80A4651680029F9D1146806
:100FD00015199D420AD11B682344D018884213601A
:100FE00013D10868034413604B680DE002D90C2349
:100FF000036030BD1C681819884204BF086849683E
:10100000596004BF00191860536030BD448200204D
:1010100070B5CC1C24F0030408340C2C38BF0C240D
:10102000002C064603DA0C233360002070BD8C428E
:10103000F9D3204A136810461946A1B10A68121B59
:101040000ED40B2A03D90A608B188C501FE08B42F8
:101050000DBF5A684A685A60026018BF0B4616E016
:101060000B464968E9E7144D2B681BB9304600F080
:1010700007FB28603046214600F002FB421C034675
:10108000D1D0C51C25F0030585420AD11C6003F1AF
:101090000B001A1D20F00700821A0AD05142995005
:1010A00070BD3046E91A00F0EBFA0130BBD02B4698
:1010B000ECE770BD44820020408200202DE9F0471B
:1010C0008E68B34282460C469046994640D38A8940
:1010D00012F4906F3AD0256809696F1A6569022386
:1010E00005EB450595FBF3F57B1C4B449D4238BF52
:1010F0001D4653050FD52946FFF78AFF064698B1CE
:1011000021693A46FFF7F4FDA38923F4906343F085
:101110008003A38113E02A4600F0ECFA064670B97A
:1011200050462169FFF730FF0C23CAF80030A3892D
:1011300043F04003A3814FF0FF30BDE8F087266104
:1011400065613E44ED1B2660A5604E46B14500D268
:101150004E4632462068414600F0B1FAA3689B1B18
:10116000A36023681E4426600020BDE8F087FFFFCF
:101170002DE9F0439DB0064603938B891C060D466E
:1011800090460CD50B6953B94021FFF741FF286009
:10119000286110B90C233360CCE040236B6100233D
:1011A000099320238DF8293030238DF82A304346C7
:1011B0001C4613F8012B1AB9B4EB08090FD002E052
:1011C000252AF5D1F8E73046294642464B46FFF737
:1011D00075FF013000F0A980099B4B4409932378E7
:1011E000002B00F0A28000234FF0FF3204930793FE
:1011F000059206938DF853301A9304F10108444682
:10120000DFF8489121784846052200F049FA08F1B4
:101210000108049B30B1C9EB000001228240134356
:101220000493ECE7D80644BF20228DF85320190719
:1012300044BF2B228DF8532022782A2A02D0079906
:1012400023460EE0039A111D12680391002ABBBFCA
:10125000524243F0020307920792B8BF049301344D
:101260000AE01C4601332278303A092A03D80A20C2
:1012700000FB0121F5E7079123782E2B1AD1637823
:101280002A2B0AD1039B1A1D1B680392002BB8BF9F
:101290004FF0FF33023405930CE0611C00220C4632
:1012A00001312378303B092B03D80A2000FB02329E
:1012B000F5E70592DFF8988021784046032200F098
:1012C000EFF938B1049AC8EB000040238340134380
:1012D0000493013421781A488DF82810062204F16D
:1012E000010800F0DDF988B1164B33B9039B0733D1
:1012F00023F007030833039313E003AB0093304656
:1013000004A92A46104BAFF3008007E003AB00931B
:10131000304604A92A460C4B00F092F8421C0746BE
:1013200003D0099B3B44099341E7AB895B0601D499
:10133000099801E04FF0FF301DB0BDE8F08300BF19
:10134000B1FC010800000000BD100008A7FC010866
:10135000ADFC01082DE9F84391461F468A680B69E8
:10136000DDF820809342B8BF1346C9F8003091F8E9
:10137000432006460C4612B10133C9F800302368F9
:10138000990642BFD9F800300233C9F80030256809
:1013900015F006051CD094F843302268003318BFBE
:1013A000012392061FD5E1185A1C302081F8430012
:1013B000224494F8451082F84310023313E030467B
:1013C000394604F119020123C047013007D0013525
:1013D000E368D9F800209B1A9D42F0DBDBE74FF071
:1013E000FF30BDE8F8833046394604F14302C04778
:1013F0000130F4D02268D9F80050E36802F0060208
:10140000042A08BF5D1B2269A3680CBF25EAE575A5
:1014100000259342C4BF9B1AED184FF00009A9455F
:101420000ADA3046394604F11A020123C047013076
:10143000D5D009F10109F2E70020BDE8F883FFFFEC
:101440002DE9FF410C461746227E6E2A9846064635
:101450000A9B01F1430100F0AF8012D8632A23D028
:101460000AD8002A00F0BC80582A40F0CB8084F8CB
:101470004520DFF804E257E0642A1ED0692A1CD018
:10148000C0E0732A00F0B08009D86F2A2ED0702AED
:1014900040F0B880226842F0200222603FE0752AC6
:1014A00024D0782A3BD0ADE01A68111D196013686A
:1014B00084F8423004F14205A8E020681A6810F070
:1014C000800F02D0101D186008E010F0400F02F1EC
:1014D0000400186002D0B2F9003000E01368002B5D
:1014E0003EDA2D225B4284F8432039E020681A68F6
:1014F00010F0800F02D0101D186007E010F0400FB0
:1015000002F10400186001D0138800E01368227E05
:10151000DFF864E16F2A0CBF08220A221CE078225F
:10152000DFF858E184F845202268186812F0800F2F
:1015300000F104051D6003D1550601D5038800E0C4
:101540000368D00744BF42F0200222601BB9226822
:1015500022F0200222601022002084F8430002E0E2
:10156000DFF814E10A226568A560002DA2BF20689B
:1015700020F00400206003B965B10D46B3FBF2F022
:1015800002FB10331EF8033005F8013D0346002826
:10159000F4D100E00D46082A0BD12368DA0708D5FC
:1015A000236962689A42DEBF302305F8013C05F1E9
:1015B000FF35491B21612EE025681A68606915F026
:1015C000800F03D0151D1D60136808E015F0400F53
:1015D00002F104051D60136801D0188000E0186056
:1015E000002323610D4616E01A68111D1960156865
:1015F00062682846002100F053F808B1401B606083
:10160000636804E004F1420584F842200123236169
:10161000002384F84330CDF800803046214603AAE9
:101620003B46FFF797FE013002D14FF0FF301FE03D
:10163000304639462A462369C0470130F5D0236831
:101640009B0705D4E068039B9842B8BF18460FE09B
:101650000025E368039A9B1A9D42F3DA3046394627
:1016600004F119020123C0470130DED00135F0E753
:1016700004B0BDE8F08100BFB8FC0108C9FC010856
:1016800038B5064C002305460846236015F018F8C7
:10169000431C02D1236803B12B6038BD4C8200206B
:1016A00010B5C9B202449042034606D01C788C4261
:1016B00000F10100F7D1184610BD002010BD814295
:1016C00010B501EB020301D3421E0BE09842FBD29E
:1016D0008118D21AD34204D013F8014D01F8014DFC
:1016E000F8E710BD994204D011F8014B02F8014F00
:1016F000F8E710BDF8B5074615460E4621B9114664
:10170000BDE8F840FFF784BC1AB9FFF73DFC284656
:10171000F8BD00F015F8A8420ED238462946FFF76A
:1017200077FC044650B131462A46FFF7E1FA3846C5
:101730003146FFF729FC01E03046F8BD2046F8BDF0
:1017400051F8040C0028BEBF091851F8043CC01819
:1017500004387047084B094A1B6810B5A2FB0323E5
:101760000446980900F084FF21464FF0FF30002224
:1017700000F00EFF002010BD38000020D34D621095
:1017800008B50B4B1A6842F400721A601A6842F4EA
:1017900080621A601A6842F480721A60032000F0B6
:1017A000DBFE0F20FFF7D6FF08F086FA002008BD09
:1017B000003C0240024A136801331360704700BFC7
:1017C0003C820020014B1868704700BF3C8200201B
:1017D00010B582B00190FFF7F5FF0446FFF7F2FF66
:1017E000019B001B9842F9D302B010BD704700BFA7
:1017F000002800F04B81F8B5A54A036893420446DF
:101800000CD002F58072934208D002F580729342A8
:1018100004D0A04840F20D1108F00AFB636833F4CD
:10182000403367D09B484FF4877108F001FBA368F1
:1018300033F0407304D0974840F20F1108F0F8FAE3
:101840002369012B04D993484FF4887108F0F0FA0A
:10185000A369012B04D98F4840F2111108F0E8FA6E
:10186000A36A33F0407223F0807114D0B2F1806F1C
:1018700011D0B2F1006F0ED0B1F1406F0BD0B3F1C7
:10188000606F08D003F17143012B04D981484FF4F4
:10189000897108F0CDFAE36833F4006332D1E3696B
:1018A000013B0F2B37D8236B012B04D9794840F229
:1018B000151108F0BDFA6369022B00F2CD80236A8E
:1018C000012B04D9734840F2171108F0B1FA724B9A
:1018D000A26A9A4204D0E36A33F0405340F0C280D7
:1018E000236CF3B1236CDB0624D50023012084F89C
:1018F0003C30F8BDA36833F040739CD12369012BC1
:10190000A1D8A5E7634840F2131108F091FAE36902
:10191000013B0F2BC7D95F484FF48A7108F088FA52
:10192000C1E7636484F83C302046FFF75FFF236C17
:10193000DB06DAD4226C59492368574D22F48852C9
:1019400022F0020242F0020222644A6822F440328B
:101950004A604868626802434A605F68A26A04F1AC
:10196000080090E8034027F480775F605E6846EAED
:101970000E265E605E6826F040765E605E683043EC
:101980005860986820F4006098609868AA4241EA1C
:10199000000199606CD09868E16A20F070609860EE
:1019A000986802439A609A6822F040529A609A6856
:1019B0000A439A609968A569206A21F0020199603A
:1019C0009A6842EA45029A6000285AD0626A013A4F
:1019D000072A07D92F4840F20A6108F029FA626AFB
:1019E0002368013A596841F400615960596821F44B
:1019F000604159604FF4604191FAA1F15868B1FA21
:101A000081F18A4002435A60DA6AE069276B6669AD
:101A100022F47002DA62DD6A013845EA0050D862C9
:101A2000986820F400709860996841EA47219960AD
:101A3000996821F4806199609A68002042EA8622C0
:101A40009A606064236C23F0030343F00103236472
:101A5000002384F83C30F8BD0E484FF48B7108F039
:101A6000E7F92CE70B4840F21B1108F0E1F937E7E2
:101A70009A6822F070629A609A6822F040529A60E6
:101A800098E75A6822F400625A60BDE70120704767
:101A90000020014080F701080100000F00230140F1
:101AA00010B5836982B00022012B0446019204D94B
:101AB000384840F2DD2108F0BBF9E36A33F04053C7
:101AC00004D0344840F2DE2108F0B2F994F83C30FA
:101AD000012B57D0226893680121DB0784F83C1062
:101AE00014D42D4B2D481B689168A0FB03039B0C5D
:101AF00003EB430341F0010191600193019B2BB182
:101B0000019B013B0193019B002BF9D19368D807FE
:101B100035D5236C23F4E06323F0010343F4807391
:101B200023645368590505D5236C23F4405343F4CB
:101B300080532364236C13F480531CBF636C23F025
:101B40000603636400216FF0220384F83C101360E5
:101B50005368134943F0806343F0200353604B689C
:101B6000DB0609D1906810F0405008D1936843F02B
:101B70008043936002B010BD0A4B9A4205D000200A
:101B800002B010BD022002B010BD936813F04050A7
:101B9000ECD0F4E780F701083800002083DE1B4317
:101BA00000230140002001401A4A0368934210B507
:101BB00004460CD002F58072934208D002F5807280
:101BC000934204D0144840F2423108F031F994F8BD
:101BD0003C30012B1BD023689A68012122F00102BE
:101BE00084F83C109A609A68D2070CD45A6822F0A4
:101BF000806222F020025A60236C23F4885323F081
:101C000001030B432364002084F83C0010BD022034
:101C100010BD00BF0020014080F701080368D86CA8
:101C2000704700BF704700BF704700BF38B5836979
:101C3000012B044604D9574840F2693108F0F8F8FE
:101C4000E369013B0F2B00F29A806369022B00F2DB
:101C5000908023681A685968900701D58A0653D482
:101C60001A685968520701D50D061BD41A685968BD
:101C7000D00701D54A0606D41A685968900601D5DE
:101C80004A0169D438BD1A68D507F5D5236C43F4E9
:101C9000803323642046FFF7C5FF23686FF00102FD
:101CA0001A60E9E7226CD00603D4226C42F4005299
:101CB00022649A6812F4401F1ED19A6B12F4401FDE
:101CC00002D09A68510517D45A68520514D49A68FC
:101CD00012F0405F10D1A26972B95A6822F08002F6
:101CE0005A60236C23F480532364236CDD0503D4F2
:101CF000236C43F001032364204600F013F92368AA
:101D00006FF00C021A60B1E7226CD50603D4226C86
:101D100042F4007222649A6812F0405F14D1A26902
:101D200092B9DA6A12F4700F2FD15A6822F02002A9
:101D30005A60236C23F480732364236CD90403D486
:101D4000236C43F001032364204608F095FC2368CC
:101D50006FF012021A6083E7626C6FF0200542F0A8
:101D60000202626420461D60FFF75EFF23681D606B
:101D700038BD084840F26B3108F05AF869E7054869
:101D800040F26A3108F054F85FE79A685005DBD4F6
:101D9000CBE700BF80F70108F0B50B6883B00022E5
:101DA000122B0C460192054607D9584A934204D09B
:101DB000574840F2045108F03BF86368013B0F2B91
:101DC00064D8A368072B5BD895F83C30012B54D01E
:101DD000206801230928014685F83C3027D82B6864
:101DE000A2681F6900EB400E072606FA0EF627EAE6
:101DF00006061E611E6902FA0EF232431A6162681B
:101E0000062A2AD802EB82025E6B053A1F24944010
:101E100026EA04045C635C6B9140214359633D4AAC
:101E2000934245D0002085F83C0003B0F0BD2B68FC
:101E3000A768DE6881B201EB41021E3A4FF0070E3F
:101E40000EFA02FE26EA0E06DE60DE6807FA02F2ED
:101E50003243DA606268062AD4D90C2A02EB820285
:101E60001AD81E6B233A1F24944026EA04041C63EC
:101E70001C6B914021431963D1E7022003B0F0BDF0
:101E8000234840F2065107F0D3FF9DE7204840F277
:101E9000055107F0CDFF94E7DE6A413A1F249440D4
:101EA00026EA0404DC62DC6A91402143D962B6E789
:101EB000122823D0154B984207D01128B2D1164AC8
:101EC000536843F400035360ACE71349134B4A686B
:101ED000134842F400024A601B68A0FB03239B0CDA
:101EE00003EB83035B000193019B002B9AD0019BC2
:101EF000013B0193019B002BF9D193E7D2F8043306
:101F000043F48003C2F804338CE700BF12000010D2
:101F100080F7010800200140002301403800002024
:101F200083DE1B43704700BFF8B54B691B2B0C4683
:101F300000F29E80A369012B04D950484FF4B77179
:101F400007F076FFE369012B04D94C4840F26F118A
:101F500007F06EFF2369012B04D948484FF4B8718C
:101F600007F066FF236A012B04D9444840F271113F
:101F700007F05EFF656A1C2D73D8414B6269D3F888
:101F8000000240F00100C3F80002D3F8000220F480
:101F90007C50C3F80002D3F8001241EA0521C3F8CF
:101FA00000120121D3F81C029140CD432840C3F810
:101FB0001C02E069002846D1D3F80C022840C3F87F
:101FC0000C02D200A088E768238802F18042A6684C
:101FD00002F5C84240EA074043EA0643C2F840021D
:101FE000C2F84432A369264A3BBBD2F804322B40E4
:101FF000C2F804322369BBB9214AD2F814321D4019
:10200000C2F81452236A012B05D11D4AD2F81C32A2
:102010001943C2F81C121A4AD2F8003223F0010305
:10202000C2F800320020F8BD012BEBD1144AD2F8DF
:1020300014320B43C2F81432E4E7D2F804320B43F3
:10204000C2F80432D6E70128CCD1D3F80C020843F9
:10205000C3F80C02D20002F18042A0882768A3894D
:10206000B5E706484FF4B97107F0E2FE656A84E708
:10207000024840F26D1107F0DBFE5BE7D0F7010884
:1020800000640040002800F01C8103688E4A9342DF
:1020900070B5054607D002F58062934203D08B48A5
:1020A000B52107F0C5FEAB69012B03D98748B621DE
:1020B00007F0BEFEEB69012B03D98448B72107F076
:1020C000B7FE2B6A012B03D98048B82107F0B0FE78
:1020D0006B6A012B03D97D48B92107F0A9FEAB6AD1
:1020E000012B03D97948BA2107F0A2FEEB6A012B34
:1020F00003D97648BB2107F09BFEAB6823F0404331
:10210000002B00F09A807148BC2107F091FEEB682B
:1021100033F0407340F096802B69B3F5702F00F2D6
:102120009A806B69B3F5E00F00F29E806B68013B0B
:10213000B3F5806F80F0A28095F8383003F0FF028D
:10214000002B00F0A6802B68022285F838201A6840
:1021500022F002021A601A6842F001021A60FFF7C8
:1021600031FB064605E0FFF72DFB801B0A2800F235
:1021700096802A68536813F00104F4D05368D90795
:1021800040F19380AB69012B13680CBF43F08003CF
:1021900023F080031360EB69012B13680CBF43F03D
:1021A000400323F0400313602B6A012B13680CBF1C
:1021B00043F0200323F0200313606B6A012B1368A4
:1021C0000CBF43F0100323F010031360AB6A012B24
:1021D00013680CBF43F0080323F008031360EB6A95
:1021E000012B13680CBF43F0040323F004031360B6
:1021F000EE68AC68286969696B6834432043014321
:10220000013B0B43D361136823F001031360FFF715
:10221000D9FA044604E0FFF7D5FA001B0A2849D88A
:102220002B685A68D207F6D45B6813F001003CD1E2
:102230000123E86385F8383070BDEB6833F04073F4
:102240003FF46AAF2148BD2107F0F2FD2B69B3F5D9
:10225000702F7FF666AF1D48BE2107F0E9FD6B6960
:10226000B3F5E00F7FF662AF1848BF2107F0E0FD3D
:102270006B68013BB3F5806FFFF45EAF1348C0217C
:1022800007F0D6FD95F8383003F0FF02002B7FF4FD
:102290005AAF85F83920284607F010FD53E7032090
:1022A00085F8394085F8380070BD042385F838304A
:1022B000012070BD0320002385F8380085F83930EF
:1022C00070BD0120704700BF00640040D0F70108D6
:1022D000D0B103680D4A934210B5044608D002F508
:1022E0008062934204D00A484FF4EB7107F0A0FDDE
:1022F0000223204684F8383007F028FD002084F8B7
:10230000380084F8390010BD012070470064004097
:10231000D0F70108F8B5036B9A6832F0040204465E
:1023200005D0684840F2A52107F082FD236BDA68EA
:1023300032F0020205D0634840F2A62107F078FD92
:10234000236B1B69082B00F2938023689A6856015F
:1023500003D49A68100140F1828094F83920012A50
:102360007BD09A680121520184F8391000F19680DF
:102370009A6812F0006F14BF0D4602252D015919FD
:10238000226BD1F8800100F00100C1F88001906853
:10239000002873D11068B0F5006F80F08180D1F80B
:1023A0008071D0681668384340EA4650C1F8800111
:1023B000106900F00F001061D1F8846126F00F065B
:1023C000C1F88461D1F884613043C1F88401977DFC
:1023D000D07D167D92F815E03F0447EA00601D4469
:1023E000304340EA0E20C5F88801967E92F81BE043
:1023F000107E577E360446EA0E62024342EA072206
:10240000C5F88C2194F83820222A0CBF32221222DF
:10241000002084F83820E0635A6984F8390042F4D7
:1024200080725A615A6942F400725A615A6942F4E0
:1024300080625A615A6942F400625A615A6942F4F0
:1024400000425A615A6942F001025A61D1F8803162
:1024500043F00103C1F88031F8BD0220F8BD9A684D
:10246000D1003FF57AAF042384F838300120F8BD5D
:10247000144840F2A72107F0DBFC66E75068B0F192
:10248000005F16D2D1F88001976856680743D0687C
:10249000384340EAC600C1F8800189E700256DE7AE
:1024A00040F2C221074807F0C3FC2368226B591988
:1024B00075E74FF43271034807F0BAFC2368226BCA
:1024C0005919DFE7D0F70108012938B50D46044650
:1024D00004D9204840F2863107F0AAFC94F838303D
:1024E000DBB2012B03D0122B01D0022038BD94F8AF
:1024F0003930012BF9D094F83830122B0CBF32232D
:10250000222384F8383000202368E063012284F815
:1025100039205A6942F480725A615A6942F4007251
:102520005A615A6942F480625A615A6942F40062FF
:102530005A615A6942F400425A615A6984F8390072
:102540001DB142F010025A6138BD42F00202284625
:102550005A6138BDD0F70108C31E042B10B50446DC
:1025600003D90948A42107F063FC084AD1684FF653
:10257000FF030B4043F0BF6304F0070443F4003350
:1025800043EA0423D36010BD20F8010800ED00E009
:102590000F2A70B5144606460D4628D80F2D2CD8A4
:1025A0001C4BDB68C3F30223C3F10701042903F1C9
:1025B000040228BF0421062A16D9033B01229A40AF
:1025C000013A144001228A40013A15409D40002EF4
:1025D00044EA050416DB06F1604000F56140240181
:1025E000E4B280F8004370BD00242346EAE70A48BD
:1025F000BC2107F01DFC0F2DD2D90748BD2107F0E3
:1026000017FCCDE7054B06F00F0024010344E4B2AC
:102610001C7670BD00ED00E020F80108FCEC00E045
:1026200010B5041E08DB04F01F0101236409054AEC
:102630008B4042F8243010BD0348D02107F0F8FB4E
:10264000F1E700BF00E100E020F80108BFF34F8F81
:102650000549064BCA6802F4E0621343CB60BFF33E
:102660004F8F00BFFDE700BF00ED00E00400FA055A
:102670000138B0F1807F0ED2084B10B4084C58607E
:10268000F02084F823000022072110469A60196088
:102690005DF8044B70470120704700BF10E000E078
:1026A00000ED00E010B5041E09DB6309603304F09F
:1026B0001F0401220549A24041F8232010BD04480F
:1026C00040F2911107F0B4FBEFE700BF00E100E03A
:1026D00020F801082DE9F045044683B0FFF772F8B1
:1026E000002C00F03F812368AE4A9342054631D06A
:1026F000183293422ED0183293422BD01832934284
:1027000028D01832934225D01832934222D0183262
:1027100093421FD0183293421CD002F55672934256
:1027200018D01832934215D01832934212D0183272
:1027300093420FD0183293420CD01832934209D0F2
:102740001832934206D01832934203D09648C921DA
:1027500007F06EFB636833F0C06306D0B3F1006F1F
:1027600003D09148CA2107F063FBA36833F040020D
:1027700040F0A480E36833F4007340F0AB80236939
:1027800033F4806340F0AF80636933F4006206D0B5
:10279000B3F5805F03D08448CE2107F049FBA369DD
:1027A00033F4005206D0B3F5804F03D07E48CF21DA
:1027B00007F03EFBE36933F0200206D0B3F5807FDB
:1027C00003D07948D02107F033FB236A33F4403338
:1027D00003D07548D12107F02BFB636ABBB1042BF2
:1027E00005D07148D22107F023FB636A7BB1A36A4D
:1027F000032B00F29580E36A33F0C07378D06A4807
:10280000D82107F015FB236B33F4C00374D10223E6
:10281000276884F835303B68002223F0010384F8F0
:1028200034203B6005E0FEF7CDFF401B052868D84B
:1028300027683B68DA07F6D4636901936668A36882
:10284000E5682069D4F81880226AD7F800A0DFF87C
:1028500064C1616A1E433543019B28430343E06919
:1028600043EA080303431A430AEA0C0C042942EA28
:102870000C025AD03A607A6922F007020A43FBB28E
:102880004A487A61103BA0FB03231B094849032BEC
:10289000C95CE1653ED927F47F7E2EF0030E0EF170
:1028A0000403A3653F228A40012500219A6008465F
:1028B000616584F8355003B0BDE8F085802B3FF4A6
:1028C00059AF3948CB2107F0B3FAE36833F400730A
:1028D0003FF455AF3448CC2107F0AAFA236933F40A
:1028E00080633FF451AF3048CD2107F0A1FA4BE7A8
:1028F000236B33F4C0038AD02B48D92107F098FA10
:1029000085E7032320221846626584F8353003B03A
:10291000BDE8F08527F47F7323F00303A365C1E7C7
:102920002148D72107F084FA65E7E06A236BA16AA2
:1029300003431A433A607B6941F0040223F0070322
:102940001A43B8F1000F11D1012925D001D3022972
:1029500095D1C30193D5012340226265184684F8BE
:102960003530A8E7012003B0BDE8F085B8F5005F79
:1029700004D00229EFD9032981D1EAE703293FF6E0
:102980007EAF01A353F821F057290008532900080E
:102990005729000899290008B0F1C07F7FF46FAF74
:1029A000D9E700BF1060024078F80108ABAAAAAAD4
:1029B00070F801083F8010F02DE9F04104461D46F3
:1029C000581E4FF6FE73984288461746A66D13D8D8
:1029D00094F83430012B0CD094F835300122934216
:1029E00084F834200ED0002384F834300220BDE86F
:1029F000F0810220BDE8F081194840F2CD1107F0C6
:102A000017FAE5E72368E06D0221002284F835100B
:102A100062651A68A16822F480221A603F22402968
:102A200002FA00F25D60216C0BBF9F60C3F8088062
:102A3000C3F80C80DF60B2601A6842F016021A60B8
:102A40005A6942F080025A6119B11A6842F00802CC
:102A50001A601A6842F001021A600020BDE8F08195
:102A600078F8010890F83530022B03D080234365B5
:102A7000012070470268052380F83530136823F081
:102A80000103136000207047F0B583B00023876D09
:102A90000193C36D3D68624908229A402A42044668
:102AA0000E6803D001680868400776D45D4A9A40F2
:102AB0002A4203D021684969080668D45A4A9A40D4
:102AC0002A4203D02168096889075AD410229A4003
:102AD0002A4203D02168086800073FD420229A4088
:102AE0002A4203D021680868C00625D4636D0BB361
:102AF000636DDA071AD50523216884F835300B6831
:102B00004A4A23F00103A2FB06020B60920A02E08C
:102B10000B68DB0704D5019B01339A420193F7D27E
:102B20000022012384F8342084F83530E36C0BB1A3
:102B30002046984703B0F0BDBA6094F83520052AC6
:102B40003BD00B6813F4802F0B6854D019035FD56A
:102B5000E36B002BCAD020469847C7E7BA600A68E3
:102B600012F4802F0A6822D1D20503D40A6822F019
:102B700008020A60226C002AB0D020469047E36D1C
:102B8000ACE7BA60626D42F0040262659EE7BA602B
:102B9000626D42F00202626590E7086820F004006E
:102BA0000860BA60626D42F0010262657EE711035F
:102BB000E0D5A26C002AE0D190E70A68206C22F0F0
:102BC00016020A604A6922F080024A6120B30A684C
:102BD00022F008020A603F22216D02FA03F300206E
:102BE0000122BB6084F8340084F835200029A1D08C
:102BF000204688479EE713F48073A9D10A68012014
:102C000022F010020A6084F8343084F835009FE71F
:102C1000636C002B9FD169E7A26C002AD7D1DAE759
:102C2000380000200100800004008000B5814E1BA8
:102C30002DE9F043AC4B984283B0074688462BD031
:102C400003F58063984227D003F58063984223D030
:102C500003F5806398421FD003F5806398421BD030
:102C600003F58063984217D003F58063984213D030
:102C700003F5806398420FD003F5806398420BD030
:102C800003F58063984207D003F58063984203D030
:102C90009648C52107F0CCF8B8F80030002B00F0BA
:102CA0000081D8F80430032B17D9A3F11102012AAF
:102CB00013D98F4923F400128A420ED001F58011F6
:102CC0008B420AD0A1F570218A4206D0894A9342EC
:102CD00003D08648C72107F0ABF8D8F80830022B9C
:102CE00000F2E480002403E00134102C00F097800F
:102CF0000123D8F80050A3401D409D42F4D1D8F8DC
:102D0000043023F01000022800F09F804FEA4409AD
:102D10000326396806FA09F6F64303F00302314048
:102D200002FA09F201380A4301283A607AD9F968AF
:102D3000D8F808200E4002FA09F23243D800FA60AF
:102D4000D2D56D4ADFF8A0E100260196516C41F41E
:102D500080415164516C24F0030202F1804201F47D
:102D6000804102F59C32019104F003010198D2F8F0
:102D700008C089000F20884077452CEA000028D041
:102D800006F1804606F50136B74200F094805B4EAE
:102D9000B74200F093805A4EB74200F09280594EED
:102DA000B74200F09180584EB74200F09080574EE5
:102DB000B74200F08F80564EB74200F08E80554EDD
:102DC000B74200F08D80544EB7420CBF09260A2648
:102DD0008E400643514996600A68E843D9034F493B
:102DE0004CBF2A4302400A604A684C499E034CBFCC
:102DF0002A4302404A608A68D90248494CBF2A43A4
:102E000002408A60CA689B0204F10104434B54BF2C
:102E100000EA02051543102CDD607FF469AF03B0B2
:102E2000BDE8F083D8F80C20032A31D8B96802FA3B
:102E300009F231400A43BA607968C3F3001221EA0B
:102E40000501A2400A437A6071E7D8F810100F29F3
:102E500009D92648D92106F0EBFFD8F80430D8F874
:102E6000101023F010004FEAD40E07EB8E0E04F082
:102E70000702DEF8206092004FF00F0C0CFA02FC03
:102E800001FA02F226EA0C010A43CEF820203DE7BF
:102E90001648EC2106F0CCFFD8F80C20D8F8043006
:102EA000C4E71248C62106F0C3FFFAE60F48C8215E
:102EB00006F0BEFF16E701268E408AE702268E4006
:102EC00087E703268E4084E704268E4081E70526A7
:102ED0008E407EE706268E407BE707268E4078E709
:102EE00008268E4075E700BF00000240C8F80108C0
:102EF00000001110000022100038024000080240BB
:102F0000000C024000100240001402400018024071
:102F1000001C02400020024000240240003C01400E
:102F200038B505460C4629B12B691C4214BF012057
:102F3000002038BD02484FF4C87106F079FFF3E76E
:102F4000C8F8010870B5064615460C4669B1012D52
:102F500006D909484FF4D97106F06AFFB46170BD13
:102F6000002DFBD12404B46170BD034840F2B111BF
:102F700006F05EFFEBE700BFC8F8010838B504466D
:102F80000D4621B904484FF4E47106F051FF616920
:102F90006940616138BD00BFC8F80108002838D019
:102FA00038B502681C4B9A42044603D01B48AF2137
:102FB00006F03EFF6368062B26D8A268B2F5805F54
:102FC0001CD2236861684CF6CC4545F255501D6013
:102FD000186059609A60FEF7F5FB054604E0FEF7BD
:102FE000F1FB401B302807D82368D8680028F6D1A9
:102FF0004AF6AA221A6038BD032038BD0748B1211D
:1030000006F016FFA268DCE70448B02106F010FFC6
:10301000D3E70120704700BF0030004018F90108D5
:1030200003684AF6AA221A60002070474FF48073A2
:1030300093FAA3F3B3FA83F303F1845303F56033F4
:103040009B0001221A60704710B54FF4007292FA8B
:10305000A2F20C4BB2FA82F213449B0001221A60D6
:10306000FEF7B0FB044605E0FEF7ACFB001BB0F535
:103070007A7F05D8044B5B681B07F5D5002010BD8F
:10308000032010BD2080831000700040F0B503685D
:103090000F2B83B0044600F25581DA0737D56368F9
:1030A000012B05D9052B03D0B048FA2106F0C0FE4C
:1030B000AF4A936803F00C03042B1FD0936803F00E
:1030C0000C03082B17D0AB4B22791A706368002BC6
:1030D00000F06C81FEF776FB054607E0FEF772FB19
:1030E00041F28833401B984200F22981A04B1B68B3
:1030F0009E03F3D50AE053685B02E4D59C4B1B6842
:103100009F0303D56368002B00F02D812368990786
:1031100039D5E368012B04D994484FF4967106F031
:1031200087FE23691F2B00F26D81914B9A6812F084
:103130000C0F00F011819A6802F00C02082A00F0CE
:103140000781E368002B00F063818B4B01221A603A
:10315000FEF738FB054605E0FEF734FB401B02286E
:1031600000F2ED80824B1A689707F5D51968F820B0
:1031700090FAA0F02269B0FA80F021F0F8018240C4
:103180000A431A602368180700F1BC805B073FD52B
:10319000A368012B06D9052B04D0744840F297117F
:1031A00006F046FE724B7549002201921A6C42F0FD
:1031B00080521A641B6C03F080530193019B0B68CF
:1031C00043F480730B60FEF7FDFA054605E0FEF759
:1031D000F9FA401B022800F2B280684B1B68DF0539
:1031E000F5D5674B227A1A70A368002B00F0338163
:1031F000FEF7E8FA054607E0FEF7E4FA41F2883305
:10320000401B984200F29B80594B1B6F9E07F3D5E1
:10321000A369022B00F2EC80002B70D0544A926814
:1032200002F00C02082A00F09E80022B40F001817F
:10323000E36933F4800340F01F81236A3F2B00F2DF
:103240002D81636A323BB3F5BF7F00F22181A36A0F
:1032500023F00402022A08D0042B06D0082B04D045
:1032600042484FF4EC7106F0E3FDE36A043B0B2B9C
:1032700000F20881434B00221A60FEF7A3FA0546CC
:1032800004E0FEF79FFA401B022858D8384B1A6812
:103290009101F6D447F6C07797FAA7F74FF4403676
:1032A000B7FA87F796FAA6F64FF07060B6FA86F688
:1032B00090FAA0F0A26A656AD4F820C0D4F81CE0A5
:1032C000E16AB0FA80F0520805FA07F4013A4CEAD4
:1032D0000E052C43B240814022432A480A43012173
:1032E0005A600160FEF76EFA044604E0FEF76AFADF
:1032F000001B022823D81E4B1B689A01F6D500201C
:1033000003B0F0BD6369012B05D9184840F26D1177
:1033100006F08EFD6369002B38D01B4B01221A602A
:10332000FEF750FA054604E0FEF74CFA401B02286F
:1033300005D80F4B5B6F9907F6D5236826E7032066
:1033400003B0F0BD0948F52106F072FD2368A4E63C
:103350005B685A023FF5F5AE054B1B689B0735D5F8
:10336000E368012B32D0012003B0F0BD78F90108E9
:10337000003802400238024000004742007000401E
:103380007038024060004742800E4742464A136050
:10339000FEF718FA054604E0FEF714FA401B02286F
:1033A000CDD8424B5B6F9A07F6D4C6E7FEF70AFA10
:1033B000054606E0FEF706FA41F28833401B9842C4
:1033C000BDD83A4B1B689803F4D49FE63748F821E0
:1033D000026891FAA1F12369B1FA81F122F0F802B1
:1033E0008B4013430360236818077FF5CFAE89E74E
:1033F0002F484FF4E67106F01BFDA369002B7FF404
:103400000DAF7CE72A4840F22D1106F011FD8CE645
:10341000284A1360FEF7D6F9054604E0FEF7D2F914
:10342000401B02288BD8214B1B689E07F6D42368CB
:10343000A9E6214B00221A60FEF7C4F9044605E014
:10344000FEF7C0F9001B02283FF679AF174B1B6847
:103450009B01F5D453E7FEF7B5F9054607E0FEF703
:10346000B1F941F28833401B98423FF668AF0F4BE9
:103470001B6F9807F3D4CBE60D4840F2D51106F048
:10348000D7FCDAE60A4840F2D91106F0D1FCF1E6A1
:10349000074840F2D71106F0CBFCD8E604484FF4B9
:1034A000EB7106F0C5FCCCE6800E474200380240C6
:1034B00078F9010800004742600047421C498B68C8
:1034C00003F00C03042B31D0082B2DD14A6830B403
:1034D0004D6802F03F0447F6C0734A68690293FAE8
:1034E000A3F347F6C07000EA02004ABF1149124A2E
:1034F000B1FBF4F20E49B3FA83F320FA03F058BF9C
:10350000B2FBF4F202FB00F34FF44032486892FA47
:10351000A2F200F44030B2FA82F2D0400130400012
:1035200030BCB3FBF0F07047034870470148704768
:103530000038024000127A000024F4000368013BC6
:103540000E2B70B505460C4600F2C7800F2C00F21A
:10355000B880884A136803F00F039C4200F2C380CE
:103560002B689A071ED5A96831F0800214D021F08B
:103570002002902A10D021F04002A02A0CD021F085
:103580001002C02A08D0F02906D040F24F217A4814
:1035900006F04EFCA9682B687848826822F0F00299
:1035A0000A438260DB072ED56B68032B00F2D480C0
:1035B000012B00F0D8809A1E012A704A126840F24E
:1035C000C58091072CD56D498A6822F00302134308
:1035D0008B60FEF7F7F86B68012B064600F09380CE
:1035E000022B00F09E80032B08D1A8E0FEF7EAF83A
:1035F00041F28833801B984200F2AC805F4B9B689D
:1036000013F00C0FF2D15B4A136803F00F039C42D6
:1036100008D2E3B21370136803F00F03A34201D082
:10362000012070BD2B685A0718D5E96831F4805223
:103630000ED021F40062B2F5A05F09D0B1F5C05FF1
:1036400006D04FF42D714C4806F0F2FBE9682B6868
:103650004A48826822F4E0520A4382601B0718D568
:103660002A6932F480530DD022F40063B3F5A05FD1
:1036700008D0B2F5C05F05D03F4840F2BB2106F04C
:10368000D7FB2A693D498B6823F4604343EAC203B0
:103690008B60FFF713FF394B0146F0229B6892FACB
:1036A000A2F203F0F003B2FA82F2354D354CD3406A
:1036B0000F20EB5C21FA03F32360FEF74BF80020A8
:1036C00070BD2D484FF40E7106F0B2FB294BE4B2E9
:1036D0001A681C701B68012070BD274840F2372112
:1036E00006F0A6FB32E7E3B21370136803F00F0392
:1036F000A3423FF435AF93E7FEF764F841F2883315
:10370000801B984226D81D4B9B6803F00C03042BAA
:10371000F2D178E7FEF756F841F28833801B9842E1
:1037200018D8164B9B6803F00C03082BF2D16AE7FC
:10373000FEF748F841F28833801B98420AD80F4BB5
:103740009B6803F00C030C2BF2D15CE790013FF572
:103750003AAF65E7032070BD074840F2562106F0F6
:1037600067FB6B6824E7054A126896033FF52BAFA9
:1037700056E700BF003C024078F9010800380240DB
:1037800068F9010838000020084B4FF4E0529B68AC
:1037900092FAA2F203F4E053B2FA82F20449054825
:1037A000D3400068CB5CD840704700BF003802406F
:1037B00068F9010838000020084B4FF460429B680C
:1037C00092FAA2F203F46043B2FA82F20449054885
:1037D000D3400068CB5CD840704700BF003802403F
:1037E00068F9010838000020F0B50368013B7E2B22
:1037F00083B0044600F2BC8123689F076CD06368E5
:10380000323BB3F5BF7F00F2B981AB4B00221A60A7
:10381000FDF7D8FF054605E0FDF7D4FF401B022861
:1038200000F2A381A54B1B681E01F5D42368D807BD
:1038300018D5A068831E052B00F2B38147F6C0712E
:1038400091FAA1F14FF0E042B1FA81F192FAA2F2BD
:103850006368B2FA82F28B409040984A0343C2F800
:1038600084302368990725D5E368023B0D2B00F2CD
:10387000A781E3695F1E1F2F00F29A818F4E4FF0E0
:10388000E040D6F8841090FAA0F06368E568B0FADA
:1038900080F001F0E0419A01C14042EA056343EA49
:1038A0000173C6F88430D6F88C3023F01F033B43F5
:1038B000C6F88C30804B01221A60FDF783FF054665
:1038C00005E0FDF77FFF401B022800F24E817B4B95
:1038D0001B681A01F5D5236813F00C0F00F0A080C7
:1038E0002369323BB3F5BF7F00F24E81744B002257
:1038F0001A60FDF767FF054605E0FDF763FF401B13
:10390000022800F232816D4B1B689F00F5D42368BA
:103910005E073AD56369023B0D2B00F27081236A82
:103920005E1E1F2E00F26381644D4FF0E042D5F819
:10393000883092FAA2FC47F6C077BCFA8CFC97FA62
:10394000A7F74FF0706EB7FA87F79EFAAEFEBEFA91
:103950008EFE92FAA2F260692169B2FA82F203F055
:10396000E04323FA0CF300FA0EF0B940934040EA2A
:1039700001021343C5F88830D5F88C3023F4F8538E
:1039800043EA0623C5F88C3023681D0737D5A369A1
:10399000023B052B00F22581656A35F4403340F087
:1039A000F98046494FF07062D1F8883092FAA2FC53
:1039B00047F6C07EBCFA8CFC9EFAAEFEBEFA8EFEC6
:1039C00092FAA2F24FF0E046B2FA82F796FAA6F621
:1039D000A0692269B6FA86F603F0706323FA0CF345
:1039E000B04002FA0EF2BB4002431343C1F88830E4
:1039F000D1F88C3023F440332B43C1F88C30304B5A
:103A000001221A60FDF7DEFE054605E0FDF7DAFE4D
:103A1000401B022800F2A980284B1B689800F5D5AE
:103A20002068830640F18980A36AB3F5807F2ED099
:103A3000B3F5007F2BD0234A23F4A021914223F435
:103A4000803024D002F5003223F4102191421ED0A0
:103A50001D4923F440328A4219D001F5C02123F4D4
:103A600088138B4213D0194B9A4210D003F5802350
:103A70009A420CD003F580239A4208D003F58023A4
:103A8000984204D012484FF4DD6106F0D1F90B4B97
:103A90001049002201921A6C42F080521A641B6C89
:103AA00003F080530193019B0B6843F480730B6018
:103AB000FDF788FE054614E06800474200380240E2
:103AC00070004742000302000003080000031000DA
:103AD000C8F9010800700040FDF774FE401B022881
:103AE00043D84A4B1B68D905F6D549490B6F13F4E7
:103AF0004072A36A03F4407010D090420ED00B6F56
:103B0000444A23F4407301250020156010600B67C0
:103B10000B6FDA071BD4A36A03F44070B0F5407F43
:103B200054D03B498A6822F4F8128A6038490A6FF7
:103B3000C3F30B0313430B67206810F0100015D07C
:103B4000354B94F82C201A60002003B0F0BDFDF72F
:103B500039FE05462E4B1B6F9B07DCD4FDF732FE6A
:103B600041F28833401B9842F4D9032003B0F0BDE2
:103B70002A484FF4CA6106F05BF93DE6274840F257
:103B80005A6106F055F940E6244840F2A36106F078
:103B90004FF9ABE6214840F2C96106F049F9656A80
:103BA000FFE61E484FF4CE6106F042F9A06845E6F4
:103BB0001A4840F27E6106F03BF9E3695F1E5DE65C
:103BC000164840F27D6106F033F952E610488268EB
:103BD00023F0704122F4F81221F440710A4382600C
:103BE000A4E70E484FF4D96106F022F9D4E60B4859
:103BF00040F2B96106F01CF9236A5E1E94E607489C
:103C00004FF4D76106F014F989E600BF0070004058
:103C100000380240400E4742E0114742C8F901080F
:103C2000704700BF012A2DE9F041904605460C4639
:103C300004D91C484FF40E7106F0FAF82B689A6A02
:103C40001F691B68626003F4800603F07F05C3F3FD
:103C50000541C7F30E07360CC3F30623A760A57012
:103C6000E67021706370B8F1000F17D10E091A09C0
:103C7000280906EB860700EB800002EB820605F0C0
:103C80000F0501F00F0103F00F0205EB400001EBFF
:103C9000470102EB4603A070217063700020BDE86D
:103CA000F08100BF18FA0108012AF8B51746054649
:103CB0000C4604D9164840F2D52106F0B9F82B6815
:103CC0005B6803F03F06C3F30741C3F30420C3F36B
:103CD0004233A670E17060702370BFB902093509E4
:103CE0000B09970005EB850506F00F0600F00F00A5
:103CF0003A4403EB830301F00F0106EB450500EBAB
:103D0000420001EB4301A5706070E1700020F8BD36
:103D100018FA0108026838B5D36823F0A003D3600D
:103D20000446FDF74FFD054605E0FDF74BFD401B42
:103D3000B0F57A7F05D82368DB689B06F5D50020AF
:103D400038BD032038BD00BF38B50368DA685206B5
:103D500001D5002038BD4FF0FF32DA600446FDF790
:103D600031FD05462368DB685B06F2D4FDF72AFDCA
:103D7000401BB0F57A7FF5D9032038BD00287FD0ED
:103D8000F8B5436833F04003044674D1A3687F2B31
:103D90006CD8E368B3F5004F63D2236933F4C003F2
:103DA00003D03848D72106F043F8636933F4801311
:103DB00003D03448D82106F03BF8A36933F48023BC
:103DC0003AD1637F03F0FF02002B3ED0236802202C
:103DD000CA2153226077596220465A62FFF7B4FF26
:103DE000002837D194E828009A68A1692769666994
:103DF000D4F808E0D4F80CC022F4E00222F040022B
:103E00009A609A6815433D4335439D60C3F810C0DE
:103E10001A6942EA0E421A61DA6822F08002DA6018
:103E20001A6C22F480221A641A6CFF250A430121BD
:103E30001A645D626177F8BD1248D92105F0F8FF78
:103E4000637F03F0FF02002BC0D122772046FFF7EB
:103E5000E7FEBBE72268FF2104235162012063775C
:103E6000F8BD0848D62105F0E3FF96E70548D521BF
:103E700005F0DEFF8DE70348D42105F0D9FF85E783
:103E80000120704718FA0108012AF8B516460546C0
:103E90000C4604D99B484FF4DA7105F0C9FFE3687A
:103EA000B3F5003F03D033F4803340F0B78023698B
:103EB00033F4802304D093484FF4DB7105F0B8FF4E
:103EC0002B7F012B00F0A78002236B772B68012248
:103ED0002A779B68002E6DD113F0400F237840F0B5
:103EE000A380172BE67000F2EC8063783B2B00F286
:103EF000E280A3783B2B00F2D780217809294FF08C
:103F0000000007D90A39C9B2092900F10100F9D81E
:103F10000001C0B262780143092A4FEA01404FF024
:103F2000000107D90A3AD2B2092A01F10101F9D8F0
:103F30000901C9B20A43092B4FEA02214FF00006DA
:103F400007D90A3BDBB2092B06F10106F9D8360185
:103F5000F6B2E27840EA024233430A4342EA0306F9
:103F60002B68CA215322596228465A62FFF7ECFE99
:103F7000074600287BD12B68E068216906F07F3274
:103F800022F0FE421A609A6822F480229A609A68AF
:103F900002430A439A60DA6822F08002DA609A6883
:103FA00092066ED5FF2001210022586269772A7798
:103FB0003846F8BD13F04002237843D1E2701A0965
:103FC00002EB820203F00F0303EB4203DBB2172B79
:103FD00000F2838063781A0902EB820203F00F0378
:103FE00003EB4203DBB23B2B58D8A3781A0902EB50
:103FF000820103F00F0202EB4102D2B23B2A46D803
:1040000021786278E678090441EA022242EA06420F
:1040100042EA0306A4E702273846F8BD394840F2D1
:10402000B51105F005FF42E7013B0B2B5BD8E378A8
:1040300013F0BF0F3FF459AF32484FF4E17105F070
:10404000F7FE52E71A0902EB820203F00F0303EBBB
:104050004203DBB2013B0B2B39D8E37813F0BF0FDF
:10406000B8D0284840F2D71105F0E2FEB2E729683F
:10407000FF2004220023012748626A772B77384605
:10408000F8BD2846FFF746FE98BB2B688AE71D4817
:1040900040F2DF1105F0CCFEA378B1E719484FF4E8
:1040A000EF7105F0C5FEA0E716484FF4E57105F085
:1040B000BFFEA37821E7134840F2C91105F0B8FE0E
:1040C00017E7104840F2C71105F0B2FE0DE70D48A2
:1040D0004FF4EB7105F0ACFEBFE70A484FF4EE7108
:1040E00005F0A6FE76E7074840F2C11105F0A0FEF4
:1040F0009DE72A68FF21042351622F776B77012700
:104100008AE700BF18FA0108012A70B5164604466E
:104110000D4604D97D4840F2652105F089FE237FD4
:10412000012B00F0A4800122022322776377002E66
:104130004DD16B78D90603D523F010030A336B7089
:104140002B78013B062B00F2B880EB78632B00F252
:10415000AE806B78013B0B2B00F2A380AB785A1E2C
:104160001E2A00F29780E97809294FF0000007D94C
:104170000A39C9B2092900F10100F9D80001C0B219
:104180006A780143092A4FEA01404FF0000107D93C
:104190000A3AD2B2092A01F10101F9D80901C9B2DA
:1041A0000A43092B4FEA022140F2AE8000220A3B6B
:1041B000DBB2092B02F10102F9D81201D6B22A783A
:1041C00040EA42320A43334342EA030530E02B78A7
:1041D000013B062B58D8EB781A0902EB820203F058
:1041E0000F0303EB4203DBB2632B79D86B781A0918
:1041F00002EB820203F00F0303EB4203DBB2013B4D
:104200000B2B67D8AB781A0902EB820103F00F027F
:1042100002EB4102D2B2013A1E2A54D8E9786A78F8
:104220002D78090441EA022242EA453242EA0305B6
:104230002368CA215322596220465A62FFF784FD3F
:104240000646B8B9236825F07F4222F0C0025A60C2
:10425000DA6822F08002DA609A68920646D5FF207A
:1042600001210022586261772277304670BD022614
:10427000304670BD2168FF200422002301264862D9
:1042800062772377304670BD204840F2712105F0F7
:10429000CFFDA0E71D4840F2772105F0C9FDAB78BE
:1042A00061E71A4840F2762105F0C2FD56E717484B
:1042B00040F2752105F0BCFD4BE7144840F2712136
:1042C00005F0B6FD41E711484FF4217105F0B0FD4E
:1042D000AB78A3E70D4840F2822105F0A9FD91E7F4
:1042E0000A484FF4207105F0A3FD7FE72046FFF751
:1042F00011FD08B92368B2E72268FF210423516247
:10430000267763770126B0E7002658E718FA0108F8
:10431000037F012B01D10220704770B50368054669
:10432000CA2102205322012468772C7759625A62ED
:104330009A6822F480629A609A6822F480429A60B5
:10434000FDF740FA064605E0FDF73CFA801BB0F5A4
:104350007A7F0CD82A68D36813F00404F4D00023C1
:10436000FF2001215062184669772B7770BD2A68BB
:104370000323FF21516218462C776B7770BD00BF75
:10438000704700BFF0B138B590F82C3004460D46A8
:1043900003F0FF028BB12146022351F8040B84F88D
:1043A0002C3002F0EDF8294694E8050002F0ACF953
:1043B000012384F82C30002038BD80F82D20FFF731
:1043C000DFFFE8E70120704738B590F82C30DBB20A
:1043D000022B01D1184638BD0D460223044680F851
:1043E0002C30006802F046FA2B68022B0CBF052324
:1043F000012384F82C30002038BD00BF90F82C3009
:10440000DBB2022B01D11846704710B502230446D7
:1044100080F82C30006802F08BFA012384F82C30ED
:10442000002010BDF8B507460C4616461D463968F3
:1044300001E06B1C09D188682040201AB0FA80F096
:1044400040098642F5D10020F8BD35B1FDF7BAF933
:10445000069BC01A8542EAD839684B687A6823F00F
:10446000E003B2F5827F4B6015D0BB6AB3F5005F05
:1044700007D00122002387F8512087F8503003200D
:10448000F8BD0A684DF6FF7313400B600B6843F4E8
:1044900000530B60EDE7BB68B3F5004F02D0B3F5F6
:1044A000806FE2D10B6823F040030B60DDE700BFB3
:1044B00010B582B00B460092802100220446FFF71F
:1044C000B1FF20B1636D43F020036365032002B0A8
:1044D00010BD00BF002800F0E2802DE9F041036824
:1044E000704A934282B0804618D0A2F57842934237
:1044F00014D002F58062934210D002F578429342C4
:104500000CD002F5E052934208D002F5806293424B
:1045100004D0654840F20B1105F08AFCD8F804304D
:104520003BB1B3F5827F04D05F484FF4867105F04C
:104530007FFCD8F8083033F4806240F09380D8F8DC
:104540000C3033F4006340F09C80D8F8183033F41A
:10455000007207D0B3F5802F04D0534840F20F11FA
:1045600005F066FCD8F81C3033F0180306D0202B79
:1045700004D04D484FF4887105F05AFCD8F820302B
:1045800033F0800304D0484840F2111105F050FC8C
:10459000D8F82430002B59D1D8F8103033F002036A
:1045A00004D0414840F2151105F042FCD8F814300F
:1045B000012B04D93C484FF48B7105F039FC98F875
:1045C0005130002203F0FF01C8F82820002B5ED0F4
:1045D0001346D8F82020D8F804700192D8F80820A3
:1045E000D8F80C60D8F81050D8F81440D8F81C103F
:1045F000D8F818E0D8F8000017433E4335432C4361
:10460000019A21430EF4007602250A4388F851509E
:10461000324301681A434FEA1E4ED8F824300EF098
:10462000040E4EEA030321F0400101600260436082
:10463000C369002223F40063C36101211046C8F856
:10464000542088F8511002B0BDE8F081102BB6D08C
:1046500015484FF4897105F0EBFBD8F82430002B96
:10466000ADD199E7B3F5004F3FF469AF0E4840F282
:104670000D1105F0DDFBD8F80C3033F400633FF486
:1046800064AF09484FF4877105F0D2FB5DE788F805
:104690005010404605F088FBD8F8283099E70120F3
:1046A000704700BF0030014068FA0108F8B50E46B7
:1046B0008168044617461D46B1B994F85010012987
:1046C00010D094F8511062680123C9B2994284F85D
:1046D000503014D0B2F5827F0CD00220002384F831
:1046E0005030F8BD0220F8BD1E4840F2C54105F02B
:1046F0009FFBE2E7A368002BEFD10429EDD126B39D
:104700001FB315B394F851302663012B04BF052362
:1047100084F85130E368A58600226265A763E586C8
:10472000A587E587B3B9104A104B226463642368F8
:104730005A6842F0E0025A60186810F040000ED14A
:104740001A6842F040021A60C8E70023012084F88A
:104750005030F8BD064A074B22646364E7E7002047
:10476000BCE700BF68FA0108794A00083D4A000822
:10477000ED4A0008B54A0008F8B5836833F40043F1
:1047800004460D46164604D02B4840F21A5105F057
:104790004FFB94F85030012B0CD094F851000123BA
:1047A000C0B2984284F8503006D00220002384F82A
:1047B0005030F8BD0220F8BD002DF7D0002EF5D006
:1047C000A268A6860023B2F5004F4FF003012268CD
:1047D00084F851106365E686E387A363636423640A
:1047E000A38708BF1368256304BF43F480431360A5
:1047F000E38EA06C1149DFF84CE0114F01640026F4
:104800000C329BB22946C0F83CE0C7640665FEF74F
:10481000D3F823681A68520603D41A6842F040029B
:104820001A605A6842F020025A605A6842F0020246
:104830005A600020BAE700BF68FA0108654900081D
:10484000254B0008494B0008F8B50F46816804461F
:1048500016461D46B1B994F85010012910D094F8AD
:10486000511062680123C9B2994284F8503014D0C3
:10487000B2F5827F0CD00220002384F85030F8BDBE
:104880000220F8BD2F4840F2D95105F0D1FAE2E7F5
:10489000A368002BEFD10429EDD1002F4CD0002EBE
:1048A0004AD0002D48D094F85130E06CA586012BF9
:1048B00004BF052384F8513000236365E586E5874E
:1048C00094F851202364042A636407BF1E4A1F4BD7
:1048D0001F4A204BA5872763A6630264C363216830
:1048E000E38F1D4AC264002532469BB20C31056538
:1048F000FEF762F82268A06C5368216B43F0010355
:104900005360E38E05640C329BB2C563C5640565D4
:10491000FEF752F823681A68520603D41A6842F068
:1049200040021A605A6842F020025A605A6842F007
:1049300002025A6000209FE70023012084F85030D3
:10494000F8BD00BF68FA010875490008B14B0008BE
:1049500085490008014C0008254B0008704700BF3E
:10496000704700BF08B5806BFFF7FAFF08BD00BFB6
:10497000704700BF08B5806BFFF7FAFF08BD00BFA6
:10498000704700BF08B5806BFFF7FAFF08BD00BF96
:10499000704700BF30B5274B274A1B68A2FB032393
:1049A00083B0642205465B0A02FB03F30093FCF725
:1049B00009FF2C68636823F020030246636002E06D
:1049C000A3689B0708D4009B591E0091002BF7D1C8
:1049D0006B6D43F020036B6528466421FFF768FD8B
:1049E00018B16B6D43F020036B65AB6833B92A686F
:1049F0000193D368019393680193019B6B6D63B935
:104A000095F85130042B4FF0010385F851302846BA
:104A10000BD00DF025F803B030BD012385F85130DF
:104A20002846FFF7B5FF03B030BDFFF797FF03B08F
:104A300030BD00BF38000020F119760510B4026BBC
:104A40000168541C046312780A73C28E013A92B250
:104A5000C286C28E92B23AB901684A6822F08002D8
:104A60004A60C38F9BB213B15DF8044B70475DF889
:104A7000044BFFF78FBF00BF10B4826B0168541C5A
:104A80008463097B1170C28F013A92B2C287C28FD0
:104A900092B23AB901684A6822F060024A60C38E55
:104AA0009BB213B15DF8044B70475DF8044BFFF700
:104AB00071BF00BF016B10B4046831F8022BE260D3
:104AC000C28E0163013A92B2C286C28E92B232B9EC
:104AD000626822F080026260C38F9BB213B15DF8FE
:104AE000044B70475DF8044BFFF754BF10B40468E3
:104AF000816BE26821F8022BC28F8163013A92B286
:104B0000C287C28F92B232B9626822F040026260FC
:104B1000C38E9BB213B15DF8044B70475DF8044B34
:104B2000FFF738BF08B5836B19684A6822F00302A3
:104B30004A605A6D012142F010025A65184683F806
:104B40005110FFF725FF08BD30B5054683B0846BD3
:104B5000FCF738FE2B681B68DB051ED421684B6808
:104B600023F0020302464B6020466421FFF7A0FCBD
:104B700018B1636D43F020036365A36833B92268FD
:104B80000193D368019393680193019B0123002251
:104B9000E28684F85130636D23B920460CF07AFF29
:104BA00003B030BD2046FFF7F3FE03B030BD00BFB9
:104BB00008B50368806B1B68DB050FD40268416889
:104BC0005368B1F5827F23F00303536009D00123BA
:104BD0000022C28780F85130436D73B9FFF7BEFEE3
:104BE00008BD8368B3F5004F02D0B3F5806FEED1F6
:104BF000136823F040031360E9E7FFF7C9FE08BD1F
:104C000038B50546846BFCF7DDFD2B681B68DB05BA
:104C100016D4024664212046FFF74AFC18B1636DA2
:104C200043F02003636521684B68002223F00303EF
:104C300001204B60E286E28784F85100636D1BB966
:104C400020460CF00DFF38BD2046FFF7A1FE38BD11
:104C5000026830B55168936803F04105012D85B0B5
:104C6000044654D09D074CD413F4B07F47D08D0632
:104C700045D558060ED594F85100032850D0606DE4
:104C8000002540F0040060650095D06800909068B1
:104C9000009000989D060CD5606D002540F0010045
:104CA0006065029590680290106820F040001060E6
:104CB0000298D80508D5636D002043F008036365AA
:104CC000039093680393039B636DC3B1536823F010
:104CD000E003536001208B0784F851001CD0536817
:104CE000E06C23F00303536018B1114B0365FDF72B
:104CF000B9FEA06C18B10E4B0365FDF7B3FE05B00D
:104D000030BD0806B0D5636C20469847F7E74D06DE
:104D1000A8D5036C9847F2E72046FFF739FEEEE787
:104D200000230193D368019393680193019BE6E705
:104D3000354D000808B5836B0022DA871846DA86FD
:104D4000FFF726FE08BD00BFF0B4046A8F680E6846
:104D5000144D24F001040462036A4468826923F05C
:104D6000020322F07302A84243EA070342EA060262
:104D70000AD005F58065A84206D049684460826182
:104D8000F0BC416303627047CE688F694D6923F0C0
:104D9000080324F4407433433D4323F004032C43BD
:104DA000EBE700BF00000140026A2DE9F041044634
:104DB00022F480728D6808682262226A6768E3695B
:104DC0000E46254922F4007223F073038C4242EA16
:104DD000052543EA00080AD0204B9C4207D073689F
:104DE0006760C4F81C80E3632562BDE8F081F36866
:104DF00033F0080316D1B36933F400731BD1736920
:104E000033F4807220D1F068B16927F4405225F460
:104E1000006545EA002542EA011225F4806542EA70
:104E20000317DCE70E4841F20D3105F001F8B369D4
:104E300033F40073E3D00A4841F20E3104F0F8FF76
:104E4000736933F48072DED0054841F20F3104F00B
:104E5000EFFF7369D7E700BF000001400004014085
:104E6000B8FA0108036A23F480532DE9F0418E68F3
:104E70000D680362026A4768C3698846164922F4CE
:104E8000005223F4E6438842044642EA063643EAE7
:104E900005250AD0114B984207D0D8F80430676036
:104EA000E56123642662BDE8F081D8F8143033F45C
:104EB000807204D127F4804747EA8317EDE708485A
:104EC00041F2533104F0B4FFD8F8143027F480478E
:104ED00047EA8317E1E700BF0000014000040140FA
:104EE000B8FA01080268F8B593684C680D6823F0B9
:104EF0007003234323F007032B43302C936000F00F
:104F0000D58151D9502C0D46064600F0738140F2F0
:104F1000C680602C76D0702C4ED1B44B9A4217D0FC
:104F2000B2F1804F14D0A3F57C439A4210D003F520
:104F300080639A420CD003F580639A4208D003F54F
:104F400078439A4204D0AA4841F28A3104F070FFB3
:104F5000EB6833F4405304D0A54841F28B3104F0A0
:104F600067FFAB68B3F5004F09D033F0020206D0FB
:104F70000A2B04D09E4841F28C3104F059FF286975
:104F80000F2805D99A4841F28D3104F051FF286964
:104F90003468AB68A268E96822F47F420B4313438C
:104FA00043EA0023A360F8BD102C00F0C580202C3C
:104FB00003D0002C00F0ED80F8BD8C4B9A42FBD062
:104FC000B2F1804FF8D0A3F57C439A42F4D003F5B8
:104FD00080639A42F0D003F580639A42ECD003F5E7
:104FE00078439A42E8D003F570539A42E4D0A3F58F
:104FF00094339A42E0D07E4841F2D931BDE8F8407E
:1050000004F016BF794B9A421FD0B2F1804F1CD0EA
:10501000A3F57C439A4218D003F580639A4214D0DA
:1050200003F580639A4210D003F578439A420CD07E
:1050300003F570539A4208D0A3F594339A4204D0F2
:105040006B4841F2BD3104F0F3FEAB68B3F5004F9D
:1050500009D033F0020206D00A2B04D0644841F292
:10506000BE3104F0E5FE2C690F2C05D9604841F2F1
:10507000BF3104F0DDFE2C693368AD68186A20F09A
:105080001000186299691A6A21F4704122F0A00296
:1050900041EA043142EA051299611A62F8BD402CD6
:1050A00040F03181514B9A422FD0B2F1804F2CD039
:1050B000A3F57C439A4228D003F580639A4224D01A
:1050C00003F580639A4220D003F578439A421CD0BE
:1050D00003F570539A4218D003F580639A4214D0B6
:1050E00003F580639A4210D0A3F598339A420CD00E
:1050F00003F580639A4208D003F580639A4204D096
:105100003B4841F2993104F093FE28690F2805D9F4
:10511000374841F29A3104F08BFE286933681C6AE3
:10512000196A21F0010119629A6922F0F00242EA3B
:1051300000129A611C62F8BD2C4B9A423FF43CAFBE
:10514000B2F1804F3FF438AFA3F57C439A423FF46D
:1051500033AF03F580639A423FF42EAF03F58063CB
:105160009A423FF429AF03F578439A423FF424AFC3
:1051700003F570539A423FF41FAFA3F594339A425C
:105180003FF41AAF1A4841F2D231BDE8F84004F0BA
:105190004FBE164B9A423FF40FAFB2F1804F3FF42F
:1051A0000BAFA3F57C439A423FF406AF03F580634F
:1051B0009A423FF401AF03F580639A423FF4FCAE9C
:1051C00003F578439A423FF4F7AE03F570539A42E1
:1051D0003FF4F2AEA3F594339A423FF4EDAE0448A7
:1051E00041F2CB31BDE8F84004F022BE000001409E
:1051F000B8FA0108444B9A422FD0B2F1804F2CD01C
:10520000A3F57C439A4228D003F580639A4224D0C8
:1052100003F580639A4220D003F578439A421CD06C
:1052200003F570539A4218D003F580639A4214D064
:1052300003F580639A4210D0A3F598339A420CD0BC
:1052400003F580639A4208D003F580639A4204D044
:105250002E4841F2AF3104F0EBFDAB68B3F5004FDF
:1052600009D033F0020206D00A2B04D0274841F2BD
:10527000B03104F0DDFD2F690F2F05D9234841F22D
:10528000B13104F0D5FD2F693368A868196A1C6A2A
:1052900024F001041C629A6921F00A0122F0F00254
:1052A000014342EA07129A611962F8BD164B9A420D
:1052B0003FF482AEB2F1804F3FF47EAEA3F57C4363
:1052C0009A423FF479AE03F580639A423FF474AE9C
:1052D00003F580639A423FF46FAE03F578439A4238
:1052E0003FF46AAE03F570539A423FF465AEA3F5FE
:1052F00094339A423FF460AE04484FF49F51BDE8A6
:10530000F84004F095BDF8BD00000140B8FA01086E
:10531000244A0368934210B539D0B3F1804F36D098
:10532000A2F57C42934232D002F5806293422ED0A5
:1053300002F5806293422AD002F58062934226D021
:1053400002F58062934222D002F5704293421ED051
:1053500002F5705293421AD002F58062934216D041
:1053600002F58062934212D0A2F5983293420ED099
:1053700002F5806293420AD002F58062934206D021
:1053800004464FF4B271084804F052FD2368DA680D
:1053900042F00102DA601A6842F001021A6000204D
:1053A00010BD00BF00000140B8FA0108704700BFFF
:1053B000704700BF2D4A0368934270B504460D46FE
:1053C0001FD0B3F1804F1CD0A2F57C42934218D07D
:1053D00002F58062934214D002F58062934210D0AD
:1053E00002F5784293420CD002F57052934208D0F5
:1053F000A2F59432934204D01D4841F2280104F0F2
:1054000017FD2B683BB1043B032B04D9184841F22C
:10541000290104F00DFD6B6833F0300306D0402BFA
:1054200004D0134841F22A0104F002FD94F8383008
:10543000012B01D1022070BD01260223294684F8E8
:105440003930204684F83860FFF74CFD2368DA686D
:1054500022F04002DA60DA68002122F48042DA6049
:10546000084684F8396084F8381070BD00000140A7
:10547000B8FA010890F83830012B10D0012310B58C
:10548000044680F838300C2900F2B380DFE801F0E0
:105490002BB1B1B165B1B1B18FB1B1B10900022089
:1054A00070470368554A934218D0B3F1804F15D026
:1054B000A2F57C42934211D002F5806293420DD056
:1054C00002F58062934209D002F57842934205D0FA
:1054D0004B4841F29A0104F0ABFC2368186C00239E
:1054E00084F8383010BD0368444A934230D0B3F199
:1054F000804F2DD0A2F57C42934229D002F58062E4
:10550000934225D002F58062934221D002F5784281
:1055100093421DD002F57052934219D002F5806279
:10552000934215D002F58062934211D0A2F59832D1
:1055300093420DD002F58062934209D002F5806259
:10554000934205D02E4841F27A0104F071FC2368A1
:10555000586B002384F8383010BD0368274A934203
:1055600020D0B3F1804F1DD0A2F57C42934219D0D8
:1055700002F58062934215D002F58062934211D009
:1055800002F5784293420DD002F57052934209D051
:10559000A2F59432934205D0194841F2840104F0F7
:1055A00047FC2368986B002384F8383010BD0368EB
:1055B000124A934218D0B3F1804F15D0A2F57C4225
:1055C000934211D002F5806293420DD002F58062C1
:1055D000934209D002F57842934205D0084841F23F
:1055E0008F0104F025FC2368D86B002384F8383041
:1055F00010BD0023002084F8383010BD00000140A9
:10560000B8FA010890F83900704700BF364A0368BD
:10561000904270B454D0B0F1804F30D0A2F57C42AB
:1056200090422CD002F58062904228D002F5806230
:10563000904224D002F57842904220D002F5705278
:10564000904230D002F5806290422CD002F5806208
:10565000904228D0A2F59832904224D002F5806280
:10566000904220D002F5806290421CD08C680A687B
:1056700003600123C462826270BC436170474A6860
:105680001A4C8E680D6823F070031343CA6823F424
:1056900040731343A0420360C66285621DD001239C
:1056A000436170BC7047CA688C68096823F4407312
:1056B000134303600123C462816270BC436170477D
:1056C0004A68CC688E680D6823F070031A4322F490
:1056D000407222430260C66285620B690363012344
:1056E000436170BC704700BF0000014000040140EE
:1056F000002876D003683C4A934210B5044637D060
:10570000B3F1804F34D0A2F57C42934230D002F501
:10571000806293422CD002F58062934228D002F539
:105720008062934224D002F58062934220D002F539
:10573000704293421CD002F57052934218D002F589
:105740008062934214D002F58062934210D0A2F599
:10575000983293420CD002F58062934208D002F551
:105760008062934204D0214840F2F33104F060FBA0
:10577000A36833F010020AD023F04002202A06D09A
:10578000402B04D019484FF47D7104F051FB23697C
:1057900033F4807211D194F8393003F0FF02D3B1A1
:1057A0002146022351F8040B84F83930FFF72EFF0D
:1057B000012384F83930002010BDB3F5007FEAD012
:1057C0000A4840F2F53104F033FB94F8393003F025
:1057D000FF02002BE4D184F838202046FFF7E6FDD5
:1057E000DEE70120704700BF00000140B8FA010861
:1057F000002876D003683C4A934210B5044637D05F
:10580000B3F1804F34D0A2F57C42934230D002F500
:10581000806293422CD002F58062934228D002F538
:105820008062934224D002F58062934220D002F538
:10583000704293421CD002F57052934218D002F588
:105840008062934214D002F58062934210D0A2F598
:10585000983293420CD002F58062934208D002F550
:105860008062934204D0214840F2F65104F0E0FAFD
:10587000A36833F010020AD023F04002202A06D099
:10588000402B04D0194840F2F75104F0D1FA2369B3
:1058900033F4807211D194F8393003F0FF02D3B1A0
:1058A0002146022351F8040B84F83930FFF7AEFE8D
:1058B000012384F83930002010BDB3F5007FEAD011
:1058C0000A484FF4BF6104F0B3FA94F8393003F09A
:1058D000FF02002BE4D184F838202046FFF768FD52
:1058E000DEE70120704700BF00000140B8FA010860
:1058F00070B4046A1C4E24F001040462B04284694E
:10590000056A1FD0B0F1804F1CD0A6F57C46B0428E
:1059100018D006F58066B04214D006F58066B04215
:1059200010D006F57846B0420CD006F57056B0425D
:1059300008D0A6F59436B04204D024F0030242F019
:10594000010202E024F0030422431B01DBB222F037
:10595000F00225F00A0501F00A010D431A438261A5
:10596000056270BC704700BF00000140F8B50546F5
:10597000A6482B6883420C4616462ED0B3F1804FC2
:105980002BD0A34A934228D002F58062934224D0C0
:1059900002F58062934220D002F5784293421CD0F7
:1059A00002F57052934218D002F58062934214D0EF
:1059B00002F58062934210D0A2F5983293420CD047
:1059C00002F58062934208D002F58062934204D0CF
:1059D000904840F6DB3104F02BFA236833F00202E2
:1059E00006D00A2B04D08B4840F6DC3104F020FAB4
:1059F0006368013B022B66D8A36833F00C0304D024
:105A0000844840F6DE3104F013FAE3680F2B60D8C7
:105A100095F83830012B54D00122022385F8382024
:105A200085F83930002E5AD0042E2B68774A66D07C
:105A3000082E00F0AC80934218D0B3F1804F15D0FF
:105A4000A2F57C42934211D002F5806293420DD0C0
:105A500002F58062934209D002F57842934205D064
:105A60006C4840F6164104F0E3F92B68186AE168C7
:105A700020F4805094E8C000A4681862DA69186ABB
:105A800022F440723603090342EA072289B206F47F
:105A9000204622F4704220F420400A4346EA0001E6
:105AA000DA611962DA6922F44062DA61DA6942EA9B
:105AB0000424DC610123002085F8393085F83800A2
:105AC000F8BD0220F8BD534840F6DD3104F0B0F9CE
:105AD00092E7504840F6DF3104F0AAF998E794E8DD
